S01800004763634170706C69636174696F6E35342E7372656322
S11300000C942A000C9447000C9447000C9447006D
S11300100C9447000C9462000C9447000C94490023
S11300200C9447000C9447000C9447000C94470030
S11300300C9447000C9447000C9447000C94470020
S11300400C9447000C9447000C9447000C94470010
S11300500C94470011241FBECFE5D8E0DEBFCDBF0E
S113006010E0A0E6B0E0E8EBF1E002C005900D92EC
S1130070AA36B107D9F720E0AAE6B0E001C01D9284
S1130080AF36B207E1F70E94A4000C94DA000C9496
S113009000001F920F920FB60F9211248F939F931B
S11300A080916D0090916E00019690936E00809304
S11300B06D001DBC1CBC9F918F910F900FBE0F90C3
S11300C01F9018951F920F920FB60F9211242F9321
S11300D08F939F93EF93FF9318BA20916A0081E066
S11300E090E002C0880F991F2A95E2F780958BBB98
S11300F080916A00882319F0813091F409C0E0915D
S11301006D00F0916E00E05AFF4F808188BB08C0FB
S1130110E0916B00F0916C00E05AFF4F808188BB46
S113012080916A00982F9F5F90936A00813011F448
S113013010926A00FF91EF919F918F912F910F90F0
S11301400FBE0F901F9018958FEF8ABB1BBA18BA79
S113015087BB1FBC85E08EBD1DBC1CBC17BC16BC78
S11301608EE18BBD85E88ABD19BC18BC80E589BFCA
S113017085B5826085BD789480916D0090916E0004
S11301800A9769F480916B0090916C0001969093AA
S11301906C0080936B0010926E0010926D00809141
S11301A06B0090916C000A9739F710926C001092D2
S10B01B06B00E2CFF894FFCFCD
S10D01B83F065B4F666D7D077F6F05
S9030000FC
